:100000000C942A000C943F000C943F000C943F0089
:100010000C943F000C943F000C943F000C943F0064
:100020000C943F000C943F000C943F000C943F0054
:100030000C943F000C943F000C943F000C943F0044
:100040000C943F000C943F000C943F000C943F0034
:100050000C943F0011241FBECFE5D8E0DEBFCDBF1A
:1000600011E0A0E6B0E0E4E5F7E202C005900D92F1
:10007000A631B107D9F70E943D110C94A8130C9436
:100080000000EF92FF920F931F937B018C0120E001
:1000900030E040E05FE40E94ED0388238CF0C8016B
:1000A000B70120E030E040E05FE40E94B9010E9427
:1000B0004D049B01AC01205030404040504806C0E8
:1000C000C801B7010E944D049B01AC01B901CA01EE
:1000D0001F910F91FF90EF900895A0E0B0E0E3E74B
:1000E000F0E00C947113DC012B01FA019C91923029
:1000F00008F439C1EB018881823008F433C19430AF
:1001000069F4843009F02FC111969C91119789816F
:10011000981709F428C1ADEEB0E025C1843009F488
:1001200021C18230A9F4923009F01DC19A01AD01BC
:1001300088E0EA010990AE01E90109929E0181502F
:10014000C1F7E201898111969C918923818308C1BD
:10015000923009F407C112962D903C901397EB0151
:100160008A819B811496AD90BD90CD90DC901797BD
:10017000EC80FD800E811F819101281B390BB90194
:1001800037FF04C066277727621B730B6032710547
:100190000CF061C0121613066CF537014801062EEB
:1001A00004C096948794779467940A94D2F721E0D8
:1001B00030E040E050E004C0220F331F441F551FC1
:1001C0006A95D2F721503040404050402E213F21C7
:1001D00040235123211531054105510521F021E02E
:1001E00030E040E050E079018A01E628F72808294C
:1001F00019293CC0232BD1F1260E371E35014601AB
:10020000062E04C096948794779467940A94D2F744
:1002100021E030E040E050E004C0220F331F441FD3
:10022000551F6A95D2F721503040404050402A2156
:100230003B214C215D21211531054105510521F05E
:1002400021E030E040E050E059016A01A628B728DB
:10025000C828D9280BC0821593052CF01C01AA24AC
:10026000BB24650103C0EE24FF24870111969C91F5
:10027000D20111968C91981709F445C0992339F051
:10028000A80197012A193B094C095D0906C0A6017E
:1002900095012E193F09400B510B57FD08C01182E3
:1002A0003382228224833583468357831DC081E0B5
:1002B00081833382228288279927DC01821B930B5A
:1002C000A40BB50B84839583A683B7830DC0220F3F
:1002D000331F441F551F24833583468357838281F0
:1002E000938101979383828324813581468157814D
:1002F000DA01C9010197A109B1098F5F9F4FAF4F83
:10030000BF4328F30BC0918333822282EA0CFB1C8B
:100310000C1D1D1DE482F5820683178383E0808314
:10032000248135814681578157FF1AC0C901AA2708
:1003300097FDA095BA2F81709070A070B0705695FF
:10034000479537952795822B932BA42BB52B848328
:100350009583A683B7838281938101969383828359
:10036000DF0101C0D201CD01CDB7DEB7E2E10C94CF
:100370008D13A0E2B0E0EFEBF1E00C947D13698304
:100380007A838B839C832D833E834F835887E9E058
:10039000EE2EF12CEC0EFD1ECE010196B7010E944F
:1003A00076058E010F5E1F4FCE010596B8010E94A3
:1003B00076058A8991E089278A8BC701B801AE0149
:1003C000475E5F4F0E946D000E94A104A096E6E088
:1003D0000C949913A0E2B0E0E0EFF1E00C947D13EF
:1003E00069837A838B839C832D833E834F835887D5
:1003F000F9E0EF2EF12CEC0EFD1ECE010196B701B7
:100400000E9476058E010F5E1F4FCE010596B80142
:100410000E947605C701B801AE01475E5F4F0E949A
:100420006D000E94A104A096E6E00C949913A0E24E
:10043000B0E0EDE1F2E00C94711369837A838B8371
:100440009C832D833E834F835887CE010196BE0146
:10045000675F7F4F0E947605CE010596BE016F5EF5
:100460007F4F0E9476059985923088F08989823085
:10047000C8F0943019F4823051F404C0843029F467
:10048000923081F48DEE90E0C6C0923049F420E0C5
:100490009A858A89981321E02A87CE010996BBC0E4
:1004A000823049F420E09A858A89981321E02A8BCA
:1004B000CE014196B0C02D843E844F8458886D880B
:1004C0007E888F88988CEE24FF248701AA24BB2481
:1004D000650140E050E060E070E0E0E0F0E0C10184
:1004E00081709070892BE9F0E60CF71C081D191D2E
:1004F0009A01AB012A0D3B1D4C1D5D1D80E090E073
:10050000A0E0B0E0E614F7040805190520F481E046
:1005100090E0A0E0B0E0BA01A901480F591F6A1F9E
:100520007B1FAA0CBB1CCC1CDD1C97FE08C081E005
:1005300090E0A0E0B0E0A82AB92ACA2ADB2A3196C6
:10054000E032F10549F0660C771C881C991C569422
:10055000479437942794C3CFFA85EA892B893C893D
:100560008B859C85280F391F2E5F3F4F17C0CA010E
:1005700081709070892B61F016950795F794E79438
:1005800080E090E0A0E0B0E8E82AF92A0A2B1B2BD3
:1005900076956795579547952F5F3F4F77FDE7CF46
:1005A0000CC0440F551F661F771F17FD4160EE0CEE
:1005B000FF1C001F111F21503040403090E05907B0
:1005C00090E0690790E4790760F32B8F3C8FDB01A3
:1005D000CA018F779070A070B07080349105A1052A
:1005E000B10561F447FD0AC0E114F10401051105EC
:1005F00029F0405C5F4F6F4F7F4F40781A8EFE1797
:1006000011F081E08A8F4D8F5E8F6F8F78A383E02A
:10061000898FCE0149960E94A104A096E2E10C9434
:100620008D13A8E1B0E0E7E1F3E00C94791369835E
:100630007A838B839C832D833E834F835887B9E0D5
:10064000EB2EF12CEC0EFD1ECE010196B7010E949F
:1006500076058E010F5E1F4FCE010596B8010E94F0
:1006600076052985223008F47EC03989323010F4AD
:10067000B8017CC08A859A8989278A87243011F03D
:10068000223031F4231709F06EC06DEE70E06EC0B9
:10069000343039F41D861E861F86188A1C861B86F8
:1006A00004C0323021F484E08987B7015FC02B8514
:1006B0003C858B899C89281B390B3C872B87ED84D3
:1006C000FE840F851889AD88BE88CF88D88CEA143F
:1006D000FB040C051D0540F4EE0CFF1C001F111F50
:1006E000215030403C872B8720E030E040E050E054
:1006F00080E090E0A0E0B0E460E070E0EA14FB0489
:100700000C051D0540F0282B392B4A2B5B2BEA18D2
:10071000FB080C091D09B695A79597958795EE0CD2
:10072000FF1C001F111F6F5F7F4F6F31710531F785
:10073000DA01C9018F779070A070B0708034910594
:10074000A105B10561F427FD0AC0E114F10401051A
:10075000110529F0205C3F4F4F4F5F4F20782D87C8
:100760003E874F87588BBE01675F7F4FCB010E944A
:10077000A1046896EAE00C949513A8E1B0E0E3ECDC
:10078000F3E00C947D1369837A838B839C832D83A0
:100790003E834F83588789E0E82EF12CEC0EFD1E36
:1007A000CE010196B7010E9476058E010F5E1F4FA4
:1007B000CE010596B8010E9476058985823040F009
:1007C0008989823028F0C701B8010E94EE0501C076
:1007D0008FEF6896E6E00C949913A8E1B0E0E3EFA0
:1007E000F3E00C947D1369837A838B839C832D8340
:1007F0003E834F83588789E0E82EF12CEC0EFD1ED6
:10080000CE010196B7010E9476058E010F5E1F4F43
:10081000CE010596B8010E9476058985823040F0A8
:100820008989823028F0C701B8010E94EE0501C015
:100830008FEF6896E6E00C949913A8E1B0E0E3E24C
:10084000F4E00C947D1369837A838B839C832D83DE
:100850003E834F83588789E0E82EF12CEC0EFD1E75
:10086000CE010196B7010E9476058E010F5E1F4FE3
:10087000CE010596B8010E9476058985823040F048
:100880008989823028F0C701B8010E94EE0501C0B5
:1008900081E06896E6E00C949913ACE0B0E0E3E503
:1008A000F4E00C94811369837A838B839C83CE015B
:1008B0000196BE016B5F7F4F0E9476058D8182306D
:1008C00061F1823050F1843021F48E81882351F11E
:1008D0002EC02F81388537FD20C06E812F31310524
:1008E0001CF06623F9F023C08EE190E0821B930B8D
:1008F00029853A854B855C8504C056954795379583
:1009000027958A95D2F76623B1F05095409530959A
:1009100021953F4F4F4F5F4F0EC020E030E040E049
:1009200050E009C02FEF3FEF4FEF5FE704C020E03A
:1009300030E040E050E8B901CA012C96E2E00C94A6
:100940009D13DF92EF92FF920F931F93FC01E480BF
:10095000F58006811781D1808081823048F480E063
:1009600090E0A0E1B0E0E82AF92A0A2B1B2BA5C0F1
:10097000843009F49FC0823021F4EE24FF248701E3
:1009800005C0E114F1040105110519F4E0E0F0E0FF
:1009900096C0628173819FEF623879070CF05BC06B
:1009A00022E83FEF261B370B2A3131052CF020E0DF
:1009B00030E040E050E02AC0B801A701022E04C098
:1009C00076956795579547950A94D2F781E090E020
:1009D000A0E0B0E004C0880F991FAA1FBB1F2A9592
:1009E000D2F70197A109B1098E219F21A023B1233C
:1009F0000097A105B10521F081E090E0A0E0B0E012
:100A00009A01AB01282B392B4A2B5B2BDA01C90148
:100A10008F779070A070B07080349105A105B105FA
:100A200039F427FF09C0205C3F4F4F4F5F4F04C090
:100A3000215C3F4F4F4F5F4FE0E0F0E02030A0E0FF
:100A40003A07A0E04A07A0E45A0710F0E1E0F0E01E
:100A500079018A0127C06038710564F5FB01E1580E
:100A6000FF4FD801C7018F779070A070B0708034AD
:100A70009105A105B10539F4E7FE0DC080E490E0D1
:100A8000A0E0B0E004C08FE390E0A0E0B0E0E80EAA
:100A9000F91E0A1F1B1F17FF05C016950795F7942F
:100AA000E794319687E016950795F794E7948A9531
:100AB000D1F705C0EE24FF248701EFEFF0E06E2FA1
:100AC000679566276795902F9F77D794DD24D794F5
:100AD0008E2F8695492F462B582F5D29B701CA01C5
:100AE0001F910F91FF90EF90DF900895FC01DB01C3
:100AF000408151812281622F6F7770E0221F22276F
:100B0000221F9381892F880F822B282F30E0991F75
:100B10009927991F11969C93119721153105A9F5D5
:100B2000411551056105710511F482E037C082E875
:100B30009FEF13969C938E9312979A01AB0167E0F7
:100B4000220F331F441F551F6A95D1F783E08C9302
:100B50000DC0220F331F441F551F12968D919C917B
:100B60001397019713969C938E931297203080E0F1
:100B7000380780E0480780E4580758F314962D930F
:100B80003D934D935C93179708952F3F310579F46A
:100B9000411551056105710519F484E08C930895A0
:100BA00064FF03C081E08C9312C01C9210C02F57C9
:100BB000304013963C932E93129783E08C9387E0FA
:100BC000440F551F661F771F8A95D1F770641496DE
:100BD0004D935D936D937C93179708951F93DC015C
:100BE000FB019C91923008F447C08081823008F468
:100BF00043C0943051F411961C91843099F5818151
:100C0000682F70E0611B71093FC0843021F0923081
:100C100031F48230B9F18181882389F12DC0119698
:100C20001C9111978230F1F081811817D9F4129636
:100C30002D913C911397828193818217930794F0B1
:100C400028173907BCF014968D919D910D90BC9199
:100C5000A02D2481358146815781281739074A07FD
:100C60005B0718F4112341F00AC082179307A40709
:100C7000B50740F4112319F061E070E005C06FEF93
:100C80007FEF02C060E070E0CB011F910895DF9319
:100C9000CF93CDB7DEB7EAE3F0E08FEF8083E7E3F1
:100CA000F0E08FEF8083E4E3F0E08FEF8083E1E317
:100CB000F0E08FE08083EBE3F0E081E08083E8E325
:100CC000F0E01082E5E3F0E01082E2E3F0E08FEF85
:100CD0008083CF91DF910895DF93CF9300D000D030
:100CE00000D0CDB7DEB78A836B834C8381E08983E4
:100CF0008A81843008F0DCC08B81883008F0D8C04D
:100D00008C81813021F08C81882309F0D1C08A81C7
:100D1000282F30E03E832D838D819E818130910587
:100D2000D1F12D813E812230310509F463C08D81DE
:100D30009E81009709F08DC08C81882F90E08130D2
:100D40009105A1F4AAE3B0E0EAE3F0E08081482F46
:100D50008B81282F30E081E090E0022E02C0880FC6
:100D6000991F0A94E2F7842B8C93A3C0AAE3B0E006
:100D7000EAE3F0E08081482F8B81282F30E081E08A
:100D800090E0022E02C0880F991F0A94E2F7809526
:100D900084238C938EC08C81882F90E081309105C4
:100DA000A1F4A7E3B0E0E7E3F0E08081482F8B8176
:100DB000282F30E081E090E0022E02C0880F991FBA
:100DC0000A94E2F7842B8C9374C0A7E3B0E0E7E3C6
:100DD000F0E08081482F8B81282F30E081E090E087
:100DE000022E02C0880F991F0A94E2F7809584238F
:100DF0008C935FC08C81882F90E081309105A1F4A5
:100E0000A4E3B0E0E4E3F0E08081482F8B81282F59
:100E100030E081E090E0022E02C0880F991F0A9412
:100E2000E2F7842B8C9345C0A4E3B0E0E4E3F0E068
:100E30008081482F8B81282F30E081E090E0022EC6
:100E400002C0880F991F0A94E2F7809584238C933F
:100E500030C08C81882F90E081309105A1F4A1E30E
:100E6000B0E0E1E3F0E08081482F8B81282F30E073
:100E700081E090E0022E02C0880F991F0A94E2F7E9
:100E8000842B8C9316C0A1E3B0E0E1E3F0E0808115
:100E9000482F8B81282F30E081E090E0022E02C0A5
:100EA000880F991F0A94E2F7809584238C9301C0E0
:100EB0001982898126960FB6F894DEBF0FBECDBF8A
:100EC000CF91DF910895DF93CF9300D000D000D071
:100ED000CDB7DEB78A836B834C8381E089838A81B7
:100EE000843008F0DCC08B81883008F0D8C08C8159
:100EF000882321F08C81813009F0D1C08A81282F8C
:100F000030E03E832D838D819E8181309105D1F12A
:100F10002D813E812230310509F463C08D819E818F
:100F2000009709F08DC08C81882F90E08130910569
:100F3000A1F4ABE3B0E0EBE3F0E08081482F8B81DC
:100F4000282F30E081E090E0022E02C0880F991F28
:100F50000A94E2F7842B8C93A3C0ABE3B0E0EBE3FD
:100F6000F0E08081482F8B81282F30E081E090E0F5
:100F7000022E02C0880F991F0A94E2F780958423FD
:100F80008C938EC08C81882F90E081309105A1F4E4
:100F9000A8E3B0E0E8E3F0E08081482F8B81282FC0
:100FA00030E081E090E0022E02C0880F991F0A9481
:100FB000E2F7842B8C9374C0A8E3B0E0E8E3F0E0A0
:100FC0008081482F8B81282F30E081E090E0022E35
:100FD00002C0880F991F0A94E2F7809584238C93AE
:100FE0005FC08C81882F90E081309105A1F4A5E34A
:100FF000B0E0E5E3F0E08081482F8B81282F30E0DE
:1010000081E090E0022E02C0880F991F0A94E2F757
:10101000842B8C9345C0A5E3B0E0E5E3F0E080814C
:10102000482F8B81282F30E081E090E0022E02C013
:10103000880F991F0A94E2F7809584238C9330C01F
:101040008C81882F90E081309105A1F4A2E3B0E07B
:10105000E2E3F0E08081482F8B81282F30E081E0AF
:1010600090E0022E02C0880F991F0A94E2F7842BA9
:101070008C9316C0A2E3B0E0E2E3F0E08081482F59
:101080008B81282F30E081E090E0022E02C0880F93
:10109000991F0A94E2F7809584238C9301C01982EA
:1010A000898126960FB6F894DEBF0FBECDBFCF91D3
:1010B000DF910895DF93CF93CDB7DEB727970FB6B3
:1010C000F894DEBF0FBECDBF8A836B835D834C83F4
:1010D00081E089838A81843008F06EC08B818830FA
:1010E00008F06AC08C819D81009709F465C08A81EF
:1010F000282F30E03F832E834E815F8141305105A0
:10110000F9F08E819F818230910571F12E813F81AE
:101110002115310509F03CC0E9E3F0E08081282F7A
:1011200030E08B81882F90E0A90102C0559547954A
:101130008A95E2F7CA018170EC81FD8180833DC010
:10114000E6E3F0E08081282F30E08B81882F90E06B
:10115000A90102C0559547958A95E2F7CA018170A9
:10116000EC81FD81808329C0E3E3F0E08081282FBA
:1011700030E08B81882F90E0A90102C055954795FA
:101180008A95E2F7CA018170EC81FD81808315C0E8
:10119000E0E3F0E08081282F30E08B81882F90E021
:1011A000A90102C0559547958A95E2F7CA01817059
:1011B000EC81FD81808301C01982898127960FB659
:1011C000F894DEBF0FBECDBFCF91DF910895DF93BE
:1011D000CF9300D000D00F92CDB7DEB78A836B8358
:1011E00081E089838A81843008F056C08B81813008
:1011F00021F08B81882309F04FC08A81282F30E0AD
:101200003D832C838C819D8181309105C1F02C819F
:101210003D812230310511F18C819D81009769F566
:101220008B81882F90E08130910529F4EAE3F0E08A
:101230008FEF808332C0EAE3F0E010822EC08B8112
:10124000882F90E08130910529F4E7E3F0E08FEFFB
:10125000808323C0E7E3F0E010821FC08B81882FDA
:1012600090E08130910529F4E4E3F0E08FEF808392
:1012700014C0E4E3F0E0108210C08B81882F90E06E
:101280008130910529F4E4E3F0E08FEF808305C01D
:10129000E4E3F0E0108201C0198289810F900F9081
:1012A0000F900F900F90CF91DF910895DF93CF9320
:1012B00000D000D00F92CDB7DEB78A836B8381E078
:1012C00089838A81843038F58A81282F30E03D83F4
:1012D0002C838C819D818130910571F02C813D8121
:1012E0002230310571F08C819D81009779F4EBE318
:1012F000F0E08B81808310C0E8E3F0E08B81808395
:101300000BC0E5E3F0E08B81808306C0E2E3F0E010
:101310008B81808301C0198289810F900F900F907B
:101320000F900F90CF91DF910895DF93CF9300D06E
:1013300000D000D0CDB7DEB78A837C836B8381E099
:1013400089838A81843098F58B819C81009779F11B
:101350008A81282F30E03E832D838D819E818130CC
:10136000910581F02D813E812230310591F08D81F2
:101370009E810097A9F4E9E3F0E08081EB81FC8194
:10138000808316C0E6E3F0E08081EB81FC818083FE
:101390000FC0E3E3F0E08081EB81FC81808308C033
:1013A000E0E3F0E08081EB81FC81808301C0198261
:1013B000898126960FB6F894DEBF0FBECDBFCF91C0
:1013C000DF9108950F931F93DF93CF93CDB7DEB7CF
:1013D000CC54D0400FB6F894DEBF0FBECDBFFE0197
:1013E000E75BFF4F80E090E0ACE0B2E48083918364
:1013F000A283B3838E010B5B1F4FFE01E75BFF4FA0
:10140000608171818281938120E030E04AEF54E471
:101410000E941702DC01CB01F80180839183A28333
:10142000B383FE01EB5BFF4F608171818281938109
:1014300020E030E040E85FE30E941D04882344F48C
:10144000FE01ED5BFF4F81E090E09183808364C0FB
:10145000FE01EB5BFF4F608171818281938120E00F
:101460003FEF4FE757E40E94BD0318160CF043C04E
:10147000FE01E75BFF4F608171818281938120E0F3
:1014800030E040E251E40E941702DC01CB018E0102
:101490000D5B1F4FBC01CD010E944100DC01CB015F
:1014A000F801918380831FC0FE01EF5BFF4F88EC42
:1014B00090E091838083FE01EF5BFF4F80819181FB
:1014C0000197F1F7FE01EF5BFF4F91838083DE010F
:1014D000AD5BBF4FFE01ED5BFF4F808191810197B6
:1014E00011969C938E93FE01ED5BFF4F808191815D
:1014F0000097D1F624C08E010D5B1F4FFE01EB5B00
:10150000FF4F60817181828193810E944100DC01E3
:10151000CB01F80191838083FE01ED5BFF4F808159
:101520009181FE01FF9691838083FE01FF96808169
:1015300091810197F1F7FE01FF969183808388E303
:101540000E94A50C80E090E0A0E2B2E48BAF9CAFDB
:10155000ADAFBEAF6BAD7CAD8DAD9EAD2BEA3AEAC3
:101560004AE250E40E941702DC01CB018FAB98AF36
:10157000A9AFBAAF6FA978AD89AD9AAD20E030E0E0
:1015800040E85FE30E941D0488231CF481E08EABD9
:1015900091C06FA978AD89AD9AAD20E030E04FE7FA
:1015A00053E40E94BD0318160CF07BC06BAD7CADFC
:1015B0008DAD9EAD20E030E04AE754E40E94110377
:1015C000DC01CB018AAB9BABACABBDAB6AA97BA901
:1015D0008CA99DA920E030E04AEF54E40E94170254
:1015E000DC01CB018EA79FA7A8ABB9AB6EA57FA5E9
:1015F00088A999A920E030E040E85FE30E941D043B
:1016000088232CF481E090E09DA78CA73FC06EA5B5
:101610007FA588A999A920E03FEF4FE757E40E94F2
:10162000BD0318164CF56AA97BA98CA99DA920E0D9
:1016300030E040E251E40E941702DC01CB01BC0122
:10164000CD010E944100DC01CB019DA78CA70FC0FA
:1016500088EC90E09BA78AA78AA59BA50197F1F744
:101660009BA78AA78CA59DA501979DA78CA78CA554
:101670009DA5009769F724C06EA57FA588A999A9A3
:101680000E944100DC01CB019DA78CA78CA59DA5E4
:1016900099A788A788A599A50197F1F799A788A781
:1016A0000FC06FA978AD89AD9AAD0E944100DC01F1
:1016B000CB018EAB8EA98FA38FA18A95F1F78FA353
:1016C0008FE00E94A50C80E090E0A0E2B2E48BA342
:1016D0009CA3ADA3BEA36BA17CA18DA19EA12BEA6F
:1016E0003AEA4AE250E40E941702DC01CB018F8FF4
:1016F00098A3A9A3BAA36F8D78A189A19AA120E08C
:1017000030E040E85FE30E941D0488231CF481E080
:101710008E8F91C06F8D78A189A19AA120E030E0D1
:101720004FE753E40E94BD0318160CF07BC06BA179
:101730007CA18DA19EA120E030E04AE754E40E9404
:101740001103DC01CB018A8F9B8FAC8FBD8F6A8D1B
:101750007B8D8C8D9D8D20E030E04AEF54E40E941B
:101760001702DC01CB018E8B9F8BA88FB98F6E89FE
:101770007F89888D998D20E030E040E85FE30E940A
:101780001D0488232CF481E090E09D8B8C8B3FC05E
:101790006E897F89888D998D20E03FEF4FE757E470
:1017A0000E94BD0318164CF56A8D7B8D8C8D9D8D26
:1017B00020E030E040E251E40E941702DC01CB015E
:1017C000BC01CD010E944100DC01CB019D8B8C8BC3
:1017D0000FC088EC90E09B8B8A8B8A899B8901974C
:1017E000F1F79B8B8A8B8C899D8901979D8B8C8BC4
:1017F0008C899D89009769F724C06E897F89888DBF
:10180000998D0E944100DC01CB019D8B8C8B8C89D2
:101810009D89998B888B888999890197F1F7998B94
:10182000888B0FC06F8D78A189A19AA10E94410079
:10183000DC01CB018E8F8E8D8F878F858A95F1F796
:101840008F8781E00E94A50C80E090E0A0E0B0E4EA
:101850008B879C87AD87BE876B857C858D859E85B4
:1018600020E030E04AEF54E40E941702DC01CB0193
:101870008F839887A987BA876F81788589859A85AC
:1018800020E030E040E85FE30E941D0488232CF450
:1018900081E090E09E838D833FC06F81788589854C
:1018A0009A8520E03FEF4FE757E40E94BD031816EA
:1018B0004CF56B857C858D859E8520E030E040E28F
:1018C00051E40E941702DC01CB01BC01CD010E9452
:1018D0004100DC01CB019E838D830FC088EC90E03A
:1018E0009C838B838B819C810197F1F79C838B83F5
:1018F0008D819E8101979E838D838D819E8100972E
:1019000069F714C06F81788589859A850E944100A6
:10191000DC01CB019E838D838D819E819A83898397
:1019200089819A810197F1F79A83898386E00E94E1
:10193000A50CC45BDF4F0FB6F894DEBF0FBECDBF62
:10194000CF91DF911F910F910895DF93CF93CDB782
:10195000DEB769970FB6F894DEBF0FBECDBF898F93
:1019600080E060E040E00E94630780E061E040E0EA
:101970000E94630781E0698D0E94560980E062E061
:1019800041E00E94630780E090E0A0E8BFE38D8B18
:101990009E8BAF8BB88F6D897E898F89988D2BEA4E
:1019A0003AEA4AE250E40E941702DC01CB01898B3B
:1019B0009A8BAB8BBC8B69897A898B899C8920E057
:1019C00030E040E85FE30E941D0488231CF481E0BE
:1019D000888B91C069897A898B899C8920E030E065
:1019E0004FE753E40E94BD0318160CF07BC06D89CD
:1019F0007E898F89988D20E030E04AE754E40E9488
:101A00001103DC01CB018C879D87AE87BF876C8576
:101A10007D858E859F8520E030E04AEF54E40E946A
:101A20001702DC01CB0188879987AA87BB87688565
:101A300079858A859B8520E030E040E85FE30E945D
:101A40001D0488232CF481E090E09F838E833FC0A7
:101A5000688579858A859B8520E03FEF4FE757E4CD
:101A60000E94BD0318164CF56C857D858E859F857B
:101A700020E030E040E251E40E941702DC01CB019B
:101A8000BC01CD010E944100DC01CB019F838E830C
:101A90000FC088EC90E09D838C838C819D810197A1
:101AA000F1F79D838C838E819F8101979F838E8325
:101AB0008E819F81009769F724C0688579858A8522
:101AC0009B850E944100DC01CB019F838E838E8128
:101AD0009F819B838A838A819B810197F1F79B83F6
:101AE0008A830FC069897A898B899C890E94410009
:101AF000DC01CB01888B8889898389818A95F1F7FC
:101B0000898380E062E040E00E94630769960FB637
:101B1000F894DEBF0FBECDBFCF91DF910895DF9364
:101B2000CF93CDB7DEB769970FB6F894DEBF0FBE7F
:101B3000CDBF898F80E060E041E00E94630780E0D4
:101B400061E040E00E94630781E0698D0E945609D0
:101B500080E062E041E00E94630780E090E0A0E85E
:101B6000BFE38D8B9E8BAF8BB88F6D897E898F89FC
:101B7000988D2BEA3AEA4AE250E40E941702DC010F
:101B8000CB01898B9A8BAB8BBC8B69897A898B89CA
:101B90009C8920E030E040E85FE30E941D04882338
:101BA0001CF481E0888B91C069897A898B899C8932
:101BB00020E030E04FE753E40E94BD0318160CF01C
:101BC0007BC06D897E898F89988D20E030E04AE75F
:101BD00054E40E941103DC01CB018C879D87AE8702
:101BE000BF876C857D858E859F8520E030E04AEF3C
:101BF00054E40E941702DC01CB0188879987AA87E9
:101C0000BB87688579858A859B8520E030E040E840
:101C10005FE30E941D0488232CF481E090E09F8301
:101C20008E833FC0688579858A859B8520E03FEF5C
:101C30004FE757E40E94BD0318164CF56C857D856F
:101C40008E859F8520E030E040E251E40E9417023B
:101C5000DC01CB01BC01CD010E944100DC01CB01C4
:101C60009F838E830FC088EC90E09D838C838C8152
:101C70009D810197F1F79D838C838E819F810197D0
:101C80009F838E838E819F81009769F724C068852A
:101C900079858A859B850E944100DC01CB019F8369
:101CA0008E838E819F819B838A838A819B8101970A
:101CB000F1F79B838A830FC069897A898B899C8914
:101CC0000E944100DC01CB01888B8889898389814E
:101CD0008A95F1F7898380E062E040E00E94630723
:101CE00069960FB6F894DEBF0FBECDBFCF91DF91DE
:101CF0000895DF93CF93CDB7DEB761970FB6F89411
:101D0000DEBF0FBECDBF998B888B1F8688899989CE
:101D1000009709F48DC080C08F85282F30E0888916
:101D20009989FC01E20FF31F80810E948F0D8F853E
:101D30008F5F8F8780E090E0A0E2B1E48B879C8783
:101D4000AD87BE876B857C858D859E8520E030E0E4
:101D50004AEF54E40E941702DC01CB018F8398877D
:101D6000A987BA876F81788589859A8520E030E0D8
:101D700040E85FE30E941D0488232CF481E090E09A
:101D80009E838D833FC06F81788589859A8520E009
:101D90003FEF4FE757E40E94BD0318164CF56B85E3
:101DA0007C858D859E8520E030E040E251E40E94F4
:101DB0001702DC01CB01BC01CD010E944100DC0116
:101DC000CB019E838D830FC088EC90E09C838B8336
:101DD0008B819C810197F1F79C838B838D819E8100
:101DE00001979E838D838D819E81009769F714C032
:101DF0006F81788589859A850E944100DC01CB013D
:101E00009E838D838D819E819A83898389819A8126
:101E10000197F1F79A8389838F85282F30E088898D
:101E20009989FC01E20FF31F8081882309F074CFA8
:101E300061960FB6F894DEBF0FBECDBFCF91DF9194
:101E40000895DF93CF9300D00F92CDB7DEB78A838A
:101E50006B8381E089838A81813019F08A818230A5
:101E600099F48B81883280F48A81882F90E08130C8
:101E7000910529F48B8180580E94A50C06C08B81A6
:101E800080540E94A50C01C0198289810F900F9087
:101E90000F90CF91DF910895DF93CF93CDB7DEB749
:101EA0002C970FB6F894DEBF0FBECDBF8C837E8318
:101EB0006D834F83288781E08B838C81883008F085
:101EC000C1C08F81813021F08F81823009F0BAC08A
:101ED0008885883208F0B6C08C81282F30E03C8796
:101EE0002B878B859C858330910581F12B853C85E3
:101EF000243031057CF48B859C8581309105F1F08F
:101F00002B853C8522303105ECF48B859C85009730
:101F100089F02CC02B853C8525303105F9F08B8567
:101F20009C8585309105B4F02B853C8526303105A4
:101F3000C9F01CC080E40E94A50C1BC088E40E946C
:101F4000A50C17C080E50E94A50C13C088E50E946F
:101F5000A50C0FC080E60E94A50C0BC088E60E946D
:101F6000A50C07C080E70E94A50C03C088E70E946B
:101F7000A50C1A8219820FC029813A818D819E8118
:101F8000FC01E20FF31F80810E948F0D89819A81ED
:101F900001969A83898389819A818830910564F3B7
:101FA0008F8168850E94210F8C81282F30E03A872D
:101FB000298789859A858330910581F129853A851C
:101FC000243031057CF489859A8581309105F1F0C2
:101FD00029853A8522303105ECF489859A85009768
:101FE00089F02CC029853A8525303105F9F089859D
:101FF0009A8585309105B4F029853A8526303105DA
:10200000C9F01CC080E00E948F0D1DC081E00E94BD
:102010008F0D19C082E00E948F0D15C083E00E94D1
:102020008F0D11C084E00E948F0D0DC085E00E94CD
:102030008F0D09C086E00E948F0D05C087E00E94C9
:102040008F0D01C01B828B812C960FB6F894DEBFDA
:102050000FBECDBFCF91DF910895DF93CF93CDB762
:10206000DEB765970FB6F894DEBF0FBECDBF9D8B70
:102070008C8BEC89FD898FEF80831A8A81E0898BB4
:102080001B8A8C899D89009709F4ECC0188AE5C0E9
:102090008889882F90E0FC01EB50FF4F908183E00E
:1020A000692F40E00E9463071F86C1C08F85882F7B
:1020B00090E0FC01E750FF4F90819E012D5E3F4F65
:1020C00083E0692FA9010E945A088B89882309F0AF
:1020D000ABC080E090E0A0EAB1E48B879C87AD873D
:1020E000BE876B857C858D859E8520E030E04AEF3C
:1020F00054E40E941702DC01CB018F839887A987E3
:10210000BA876F81788589859A8520E030E040E83C
:102110005FE30E941D0488232CF481E090E09E83FD
:102120008D833FC06F81788589859A8520E03FEF58
:102130004FE757E40E94BD0318164CF56B857C856C
:102140008D859E8520E030E040E251E40E94170238
:10215000DC01CB01BC01CD010E944100DC01CB01BF
:102160009E838D830FC088EC90E09C838B838B8152
:102170009C810197F1F79C838B838D819E810197D0
:102180009E838D838D819E81009769F714C06F8136
:10219000788589859A850E944100DC01CB019E8368
:1021A0008D838D819E819A83898389819A8101970C
:1021B000F1F79A8389838F85882F90E0FC01E7509F
:1021C000FF4F90819E012D5E3F4F83E0692FA90153
:1021D0000E945A080FC08F85882F90E0FC01E750BD
:1021E000FF4F90819E012D5E3F4F83E0692FA90133
:1021F0000E945A088B89882371F38889482F50E000
:102200008F85282F30E0CA01880F991F880F991FEA
:10221000820F931FFC01E350FF4F8081EC89FD8901
:10222000808381E08A8B07C08F858F5F8F878F8542
:10223000843008F43BCF8889882F90E0FC01EB5074
:10224000FF4F908183E0692F41E00E9463078A89F4
:10225000813049F088898F5F888B8889843008F4C1
:1022600017CF01C0198A898965960FB6F894DEBF29
:102270000FBECDBFCF91DF910895DF93CF93CDB740
:10228000DEB7AC970FB6F894DEBF0FBECDBF9E0190
:102290002F5E3F4F39A728A78DE091E09BA78AA723
:1022A00098E09CA7AAA5BBA50C90EAA5FBA5319632
:1022B000FBA7EAA7A8A5B9A50C92E8A5F9A53196B0
:1022C000F9A7E8A7FCA5F150FCA72CA5222351F7FC
:1022D00088E0FE017996DF01282F1D922A95E9F703
:1022E0008FE18C8F19A2188A1AA21BA21CA21DA210
:1022F0001F860E9447060E94E20980E690E00E9445
:10230000790EE0C1CE0181960E942D1089A18F3FE8
:1023100009F4D8C189A1843429F481E00E94A50C74
:10232000188AD0C19E012F5E3F4F82E0B90142E082
:1023300028890E944C0F8889282F30E049A1CE01BE
:102340008296FC01E20FF31F408388898F5F888BA0
:102350008889843009F0B6C18AA1813309F082C12D
:102360008BA1823309F07EC18CA1833309F07AC13D
:102370008DA1843309F076C181E060E041E00E94E4
:10238000630781E060E00E94210F81E00E94A50CBC
:102390008FE690E00E94790E81E00E94A50C80E813
:1023A00090E00E94790E82E060E00E94210F81E9B6
:1023B00090E00E94790E80E090E0A8ECB2E48B8778
:1023C0009C87AD87BE876B857C858D859E8520E04B
:1023D00030E04AEF54E40E941702DC01CB018F8306
:1023E0009887A987BA876F81788589859A8520E043
:1023F00030E040E85FE30E941D0488232CF481E074
:1024000090E09E838D833FC06F81788589859A8512
:1024100020E03FEF4FE757E40E94BD0318164CF54C
:102420006B857C858D859E8520E030E040E251E41F
:102430000E941702DC01CB01BC01CD010E944100CA
:10244000DC01CB019E838D830FC088EC90E09C83E0
:102450008B838B819C810197F1F79C838B838D818A
:102460009E8101979E838D838D819E81009769F760
:1024700014C06F81788589859A850E944100DC01AE
:10248000CB019E838D838D819E819A8389838981EF
:102490009A810197F1F79A83898381E00E94A50CC4
:1024A00081E30E948F0D9E01275E3F4F81E0B901BD
:1024B00041E021E00E944C0F8CE990E00E94790EEF
:1024C00082E060E00E94210F82E30E948F0D9E0156
:1024D000275E3F4F81E0B90142E021E00E944C0FAE
:1024E00085EA90E00E94790ECE0181960E942D101F
:1024F00089A18F3FC9F389A1813309F0A4C081E08C
:102500000E94A50C81E060E00E94210F81E30E94FF
:102510008F0D9E01275E3F4F81E0B90141E021E030
:102520000E944C0F8AEA90E00E94790E81E06AE0F6
:102530000E94210F83E30E948F0D9E01275E3F4F73
:1025400081E0B90141E02BE00E944C0F82EB90E06A
:102550000E94790E82E060E00E94210F82E30E94D7
:102560008F0D9E01275E3F4F81E0B90142E021E0DF
:102570000E944C0F87EB90E00E94790ECE0181966D
:102580000E942D1089A18F3FC9F389A1A82FB0E027
:10259000BFA3AEA3EEA1FFA1E233F105B1F02EA1DE
:1025A0003FA123333105E1F08EA19FA18133910535
:1025B00009F03EC082E060E040E00E94630782E0F4
:1025C00061E041E00E946307D9CF82E061E040E032
:1025D0000E94630782E060E041E00E946307CECF83
:1025E00081E00E94A50C81E30E948F0D9E01275E71
:1025F0003F4F81E0B90141E021E00E944C0F8CE99E
:1026000090E00E94790E82E060E00E94210F82E358
:102610000E948F0D9E01275E3F4F81E0B90142E08D
:1026200021E00E944C0F85EA90E00E94790EA6CF2F
:1026300081E00E94A50C80EC90E00E94790E81E080
:102640000E94A50C9BCF81E00E94A50C81E060E078
:102650000E94210F81E00E94A50C80E690E00E947C
:10266000790E42CF8F858F5F8F878F858330A1F45E
:1026700081E061E041E00E94630781E00E94A50CD7
:1026800086EC90E00E94790E81E00E94A50C85ED19
:1026900090E00E94790E1AC0188A81E00E94A50C71
:1026A00086EC90E00E94790E81E00E94A50C83EEFA
:1026B00090E00E94790E81E00E94A50C80E690E0F7
:1026C0000E94790E8889843008F41CCE80E090E066
:1026D000AC960FB6F894DEBF0FBECDBFCF91DF91A1
:1026E00008952F923F924F925F926F927F928F92B6
:1026F0009F92AF92BF92CF92DF92EF92FF920F9391
:102700001F93CF93DF93CDB7DEB7CA1BDB0B0FB69A
:10271000F894DEBF0FBECDBF09942A883988488857
:102720005F846E847D848C849B84AA84B984C884ED
:10273000DF80EE80FD800C811B81AA81B981CE0FE4
:10274000D11D0FB6F894DEBF0FBECDBFED010895C9
:04275000F894FFCF2B
:10275400456E7465722050617373776172640063AF
:102764006F72726563742050617373776172640071
:1027740077656C636F6D6520546F204D6F746F7255
:10278400004465736820426F617264004443204DC5
:102794006F746F720045584954005475726E20432B
:1027A40043004241434B005475726E20434343003F
:1027B4004572726F720077726F6E67205061737327
:1027C4007761726400616363657373206661696C29
:1027D40065640074727920616761696E00000000AD
:1027E4000000000000000102030405060737383921
:1027F4002F3435362A3132332D44303D2B00041525
:062804000E1504000000A7
:00000001FF
